{
  "_format": "hh-sol-artifact-1",
  "contractName": "StableCoin",
  "sourceName": "artifacts/contracts/StableCoin.sol",
  "abi": [
    {
      "inputs": [
        {
          "internalType": "address",
          "name": "admin",
          "type": "address"
        }
      ],
      "stateMutability": "nonpayable",
      "type": "constructor"
    },
    {
      "inputs": [],
      "name": "AccessControlBadConfirmation",
      "type": "error"
    },
    {
      "inputs": [
        {
          "internalType": "address",
          "name": "account",
          "type": "address"
        },
        {
          "internalType": "bytes32",
          "name": "neededRole",
          "type": "bytes32"
        }
      ],
      "name": "AccessControlUnauthorizedAccount",
      "type": "error"
    },
    {
      "inputs": [
        {
          "internalType": "address",
          "name": "spender",
          "type": "address"
        },
        {
          "internalType": "uint256",
          "name": "allowance",
          "type": "uint256"
        },
        {
          "internalType": "uint256",
          "name": "needed",
          "type": "uint256"
        }
      ],
      "name": "ERC20InsufficientAllowance",
      "type": "error"
    },
    {
      "inputs": [
        {
          "internalType": "address",
          "name": "sender",
          "type": "address"
        },
        {
          "internalType": "uint256",
          "name": "balance",
          "type": "uint256"
        },
        {
          "internalType": "uint256",
          "name": "needed",
          "type": "uint256"
        }
      ],
      "name": "ERC20InsufficientBalance",
      "type": "error"
    },
    {
      "inputs": [
        {
          "internalType": "address",
          "name": "approver",
          "type": "address"
        }
      ],
      "name": "ERC20InvalidApprover",
      "type": "error"
    },
    {
      "inputs": [
        {
          "internalType": "address",
          "name": "receiver",
          "type": "address"
        }
      ],
      "name": "ERC20InvalidReceiver",
      "type": "error"
    },
    {
      "inputs": [
        {
          "internalType": "address",
          "name": "sender",
          "type": "address"
        }
      ],
      "name": "ERC20InvalidSender",
      "type": "error"
    },
    {
      "inputs": [
        {
          "internalType": "address",
          "name": "spender",
          "type": "address"
        }
      ],
      "name": "ERC20InvalidSpender",
      "type": "error"
    },
    {
      "inputs": [],
      "name": "EnforcedPause",
      "type": "error"
    },
    {
      "inputs": [],
      "name": "ExpectedPause",
      "type": "error"
    },
    {
      "anonymous": false,
      "inputs": [
        {
          "indexed": true,
          "internalType": "address",
          "name": "owner",
          "type": "address"
        },
        {
          "indexed": true,
          "internalType": "address",
          "name": "spender",
          "type": "address"
        },
        {
          "indexed": false,
          "internalType": "uint256",
          "name": "value",
          "type": "uint256"
        }
      ],
      "name": "Approval",
      "type": "event"
    },
    {
      "anonymous": false,
      "inputs": [
        {
          "indexed": false,
          "internalType": "address",
          "name": "account",
          "type": "address"
        }
      ],
      "name": "Paused",
      "type": "event"
    },
    {
      "anonymous": false,
      "inputs": [
        {
          "indexed": true,
          "internalType": "bytes32",
          "name": "role",
          "type": "bytes32"
        },
        {
          "indexed": true,
          "internalType": "bytes32",
          "name": "previousAdminRole",
          "type": "bytes32"
        },
        {
          "indexed": true,
          "internalType": "bytes32",
          "name": "newAdminRole",
          "type": "bytes32"
        }
      ],
      "name": "RoleAdminChanged",
      "type": "event"
    },
    {
      "anonymous": false,
      "inputs": [
        {
          "indexed": true,
          "internalType": "bytes32",
          "name": "role",
          "type": "bytes32"
        },
        {
          "indexed": true,
          "internalType": "address",
          "name": "account",
          "type": "address"
        },
        {
          "indexed": true,
          "internalType": "address",
          "name": "sender",
          "type": "address"
        }
      ],
      "name": "RoleGranted",
      "type": "event"
    },
    {
      "anonymous": false,
      "inputs": [
        {
          "indexed": true,
          "internalType": "bytes32",
          "name": "role",
          "type": "bytes32"
        },
        {
          "indexed": true,
          "internalType": "address",
          "name": "account",
          "type": "address"
        },
        {
          "indexed": true,
          "internalType": "address",
          "name": "sender",
          "type": "address"
        }
      ],
      "name": "RoleRevoked",
      "type": "event"
    },
    {
      "anonymous": false,
      "inputs": [
        {
          "indexed": true,
          "internalType": "address",
          "name": "from",
          "type": "address"
        },
        {
          "indexed": true,
          "internalType": "address",
          "name": "to",
          "type": "address"
        },
        {
          "indexed": false,
          "internalType": "uint256",
          "name": "value",
          "type": "uint256"
        }
      ],
      "name": "Transfer",
      "type": "event"
    },
    {
      "anonymous": false,
      "inputs": [
        {
          "indexed": false,
          "internalType": "address",
          "name": "account",
          "type": "address"
        }
      ],
      "name": "Unpaused",
      "type": "event"
    },
    {
      "anonymous": false,
      "inputs": [
        {
          "indexed": true,
          "internalType": "address",
          "name": "user",
          "type": "address"
        },
        {
          "indexed": false,
          "internalType": "uint256",
          "name": "fiat_amount",
          "type": "uint256"
        }
      ],
      "name": "money_deposited",
      "type": "event"
    },
    {
      "anonymous": false,
      "inputs": [
        {
          "indexed": true,
          "internalType": "address",
          "name": "user",
          "type": "address"
        },
        {
          "indexed": false,
          "internalType": "uint256",
          "name": "token_amount",
          "type": "uint256"
        }
      ],
      "name": "money_redeemed",
      "type": "event"
    },
    {
      "anonymous": false,
      "inputs": [
        {
          "indexed": true,
          "internalType": "address",
          "name": "user",
          "type": "address"
        },
        {
          "indexed": true,
          "internalType": "bytes32",
          "name": "role",
          "type": "bytes32"
        }
      ],
      "name": "role_granted",
      "type": "event"
    },
    {
      "anonymous": false,
      "inputs": [
        {
          "indexed": true,
          "internalType": "address",
          "name": "user",
          "type": "address"
        },
        {
          "indexed": true,
          "internalType": "bytes32",
          "name": "role",
          "type": "bytes32"
        }
      ],
      "name": "role_revoked",
      "type": "event"
    },
    {
      "inputs": [],
      "name": "BURNER_ROLE",
      "outputs": [
        {
          "internalType": "bytes32",
          "name": "",
          "type": "bytes32"
        }
      ],
      "stateMutability": "view",
      "type": "function"
    },
    {
      "inputs": [],
      "name": "DEFAULT_ADMIN_ROLE",
      "outputs": [
        {
          "internalType": "bytes32",
          "name": "",
          "type": "bytes32"
        }
      ],
      "stateMutability": "view",
      "type": "function"
    },
    {
      "inputs": [],
      "name": "MINTER_ROLE",
      "outputs": [
        {
          "internalType": "bytes32",
          "name": "",
          "type": "bytes32"
        }
      ],
      "stateMutability": "view",
      "type": "function"
    },
    {
      "inputs": [],
      "name": "WHITELIST_ROLE",
      "outputs": [
        {
          "internalType": "bytes32",
          "name": "",
          "type": "bytes32"
        }
      ],
      "stateMutability": "view",
      "type": "function"
    },
    {
      "inputs": [
        {
          "internalType": "address",
          "name": "owner",
          "type": "address"
        },
        {
          "internalType": "address",
          "name": "spender",
          "type": "address"
        }
      ],
      "name": "allowance",
      "outputs": [
        {
          "internalType": "uint256",
          "name": "",
          "type": "uint256"
        }
      ],
      "stateMutability": "view",
      "type": "function"
    },
    {
      "inputs": [
        {
          "internalType": "address",
          "name": "spender",
          "type": "address"
        },
        {
          "internalType": "uint256",
          "name": "value",
          "type": "uint256"
        }
      ],
      "name": "approve",
      "outputs": [
        {
          "internalType": "bool",
          "name": "",
          "type": "bool"
        }
      ],
      "stateMutability": "nonpayable",
      "type": "function"
    },
    {
      "inputs": [
        {
          "internalType": "address",
          "name": "account",
          "type": "address"
        }
      ],
      "name": "balanceOf",
      "outputs": [
        {
          "internalType": "uint256",
          "name": "",
          "type": "uint256"
        }
      ],
      "stateMutability": "view",
      "type": "function"
    },
    {
      "inputs": [],
      "name": "decimals",
      "outputs": [
        {
          "internalType": "uint8",
          "name": "",
          "type": "uint8"
        }
      ],
      "stateMutability": "view",
      "type": "function"
    },
    {
      "inputs": [
        {
          "internalType": "address",
          "name": "user",
          "type": "address"
        },
        {
          "internalType": "uint256",
          "name": "amount",
          "type": "uint256"
        }
      ],
      "name": "fiat_Deposit",
      "outputs": [],
      "stateMutability": "nonpayable",
      "type": "function"
    },
    {
      "inputs": [
        {
          "internalType": "address",
          "name": "",
          "type": "address"
        }
      ],
      "name": "fiat_deposits",
      "outputs": [
        {
          "internalType": "uint256",
          "name": "",
          "type": "uint256"
        }
      ],
      "stateMutability": "view",
      "type": "function"
    },
    {
      "inputs": [
        {
          "internalType": "bytes32",
          "name": "role",
          "type": "bytes32"
        }
      ],
      "name": "getRoleAdmin",
      "outputs": [
        {
          "internalType": "bytes32",
          "name": "",
          "type": "bytes32"
        }
      ],
      "stateMutability": "view",
      "type": "function"
    },
    {
      "inputs": [
        {
          "internalType": "bytes32",
          "name": "role",
          "type": "bytes32"
        },
        {
          "internalType": "address",
          "name": "account",
          "type": "address"
        }
      ],
      "name": "grantRole",
      "outputs": [],
      "stateMutability": "nonpayable",
      "type": "function"
    },
    {
      "inputs": [
        {
          "internalType": "bytes32",
          "name": "role",
          "type": "bytes32"
        },
        {
          "internalType": "address",
          "name": "account",
          "type": "address"
        }
      ],
      "name": "grant_role",
      "outputs": [],
      "stateMutability": "nonpayable",
      "type": "function"
    },
    {
      "inputs": [
        {
          "internalType": "bytes32",
          "name": "role",
          "type": "bytes32"
        },
        {
          "internalType": "address",
          "name": "account",
          "type": "address"
        }
      ],
      "name": "hasRole",
      "outputs": [
        {
          "internalType": "bool",
          "name": "",
          "type": "bool"
        }
      ],
      "stateMutability": "view",
      "type": "function"
    },
    {
      "inputs": [
        {
          "internalType": "address",
          "name": "to",
          "type": "address"
        },
        {
          "internalType": "uint256",
          "name": "amount",
          "type": "uint256"
        }
      ],
      "name": "mint",
      "outputs": [],
      "stateMutability": "nonpayable",
      "type": "function"
    },
    {
      "inputs": [],
      "name": "name",
      "outputs": [
        {
          "internalType": "string",
          "name": "",
          "type": "string"
        }
      ],
      "stateMutability": "view",
      "type": "function"
    },
    {
      "inputs": [],
      "name": "pause",
      "outputs": [],
      "stateMutability": "nonpayable",
      "type": "function"
    },
    {
      "inputs": [],
      "name": "paused",
      "outputs": [
        {
          "internalType": "bool",
          "name": "",
          "type": "bool"
        }
      ],
      "stateMutability": "view",
      "type": "function"
    },
    {
      "inputs": [
        {
          "internalType": "uint256",
          "name": "amount",
          "type": "uint256"
        }
      ],
      "name": "redeem",
      "outputs": [],
      "stateMutability": "nonpayable",
      "type": "function"
    },
    {
      "inputs": [
        {
          "internalType": "bytes32",
          "name": "role",
          "type": "bytes32"
        },
        {
          "internalType": "address",
          "name": "callerConfirmation",
          "type": "address"
        }
      ],
      "name": "renounceRole",
      "outputs": [],
      "stateMutability": "nonpayable",
      "type": "function"
    },
    {
      "inputs": [
        {
          "internalType": "bytes32",
          "name": "role",
          "type": "bytes32"
        },
        {
          "internalType": "address",
          "name": "account",
          "type": "address"
        }
      ],
      "name": "revokeRole",
      "outputs": [],
      "stateMutability": "nonpayable",
      "type": "function"
    },
    {
      "inputs": [
        {
          "internalType": "bytes32",
          "name": "role",
          "type": "bytes32"
        },
        {
          "internalType": "address",
          "name": "account",
          "type": "address"
        }
      ],
      "name": "revoke_role",
      "outputs": [],
      "stateMutability": "nonpayable",
      "type": "function"
    },
    {
      "inputs": [
        {
          "internalType": "bytes4",
          "name": "interfaceId",
          "type": "bytes4"
        }
      ],
      "name": "supportsInterface",
      "outputs": [
        {
          "internalType": "bool",
          "name": "",
          "type": "bool"
        }
      ],
      "stateMutability": "view",
      "type": "function"
    },
    {
      "inputs": [],
      "name": "symbol",
      "outputs": [
        {
          "internalType": "string",
          "name": "",
          "type": "string"
        }
      ],
      "stateMutability": "view",
      "type": "function"
    },
    {
      "inputs": [],
      "name": "totalSupply",
      "outputs": [
        {
          "internalType": "uint256",
          "name": "",
          "type": "uint256"
        }
      ],
      "stateMutability": "view",
      "type": "function"
    },
    {
      "inputs": [
        {
          "internalType": "address",
          "name": "to",
          "type": "address"
        },
        {
          "internalType": "uint256",
          "name": "amount",
          "type": "uint256"
        }
      ],
      "name": "transfer",
      "outputs": [
        {
          "internalType": "bool",
          "name": "",
          "type": "bool"
        }
      ],
      "stateMutability": "nonpayable",
      "type": "function"
    },
    {
      "inputs": [
        {
          "internalType": "address",
          "name": "from",
          "type": "address"
        },
        {
          "internalType": "address",
          "name": "to",
          "type": "address"
        },
        {
          "internalType": "uint256",
          "name": "value",
          "type": "uint256"
        }
      ],
      "name": "transferFrom",
      "outputs": [
        {
          "internalType": "bool",
          "name": "",
          "type": "bool"
        }
      ],
      "stateMutability": "nonpayable",
      "type": "function"
    },
    {
      "inputs": [],
      "name": "unpause",
      "outputs": [],
      "stateMutability": "nonpayable",
      "type": "function"
    }
  ],
  "bytecode": "0x608060405234801561001057600080fd5b50604051612a37380380612a378339818101604052810190610032919061035c565b6040518060400160405280600d81526020017f416e74795363616d20436f696e000000000000000000000000000000000000008152506040518060400160405280600481526020017f415343580000000000000000000000000000000000000000000000000000000081525081600390816100ad91906105d9565b5080600490816100bd91906105d9565b5050506000600660006101000a81548160ff0219169083151502179055506100ee6000801b8261018860201b60201c565b5061011f7f9f2df0fed2c77648de5860a4cc508cd0818c85b8b8a1ab4ceeef8d981c8956a68261018860201b60201c565b506101507f3c11d16cbaffd01df69ce1c404f6340ee057498f5f00246190ea54220576a8488261018860201b60201c565b506101817fdc72ed553f2544c34465af23b847953efeb813428162d767f9ba5f4013be67608261018860201b60201c565b50506106ab565b600061019a838361028660201b60201c565b61027b5760016005600085815260200190815260200160002060000160008473ffffffffffffffffffffffffffffffffffffffff1673ffffffffffffffffffffffffffffffffffffffff16815260200190815260200160002060006101000a81548160ff0219169083151502179055506102186102f160201b60201c565b73ffffffffffffffffffffffffffffffffffffffff168273ffffffffffffffffffffffffffffffffffffffff16847f2f8788117e7eff1d82e926ec794901d17c78024a50270940304540a733656f0d60405160405180910390a460019050610280565b600090505b92915050565b60006005600084815260200190815260200160002060000160008373ffffffffffffffffffffffffffffffffffffffff1673ffffffffffffffffffffffffffffffffffffffff16815260200190815260200160002060009054906101000a900460ff16905092915050565b600033905090565b600080fd5b600073ffffffffffffffffffffffffffffffffffffffff82169050919050565b6000610329826102fe565b9050919050565b6103398161031e565b811461034457600080fd5b50565b60008151905061035681610330565b92915050565b600060208284031215610372576103716102f9565b5b600061038084828501610347565b91505092915050565b600081519050919050565b7f4e487b7100000000000000000000000000000000000000000000000000000000600052604160045260246000fd5b7f4e487b7100000000000000000000000000000000000000000000000000000000600052602260045260246000fd5b6000600282049050600182168061040a57607f821691505b60208210810361041d5761041c6103c3565b5b50919050565b60008190508160005260206000209050919050565b60006020601f8301049050919050565b600082821b905092915050565b6000600883026104857fffffffffffffffffffffffffffffffffffffffffffffffffffffffffffffffff82610448565b61048f8683610448565b95508019841693508086168417925050509392505050565b6000819050919050565b6000819050919050565b60006104d66104d16104cc846104a7565b6104b1565b6104a7565b9050919050565b6000819050919050565b6104f0836104bb565b6105046104fc826104dd565b848454610455565b825550505050565b600090565b61051961050c565b6105248184846104e7565b505050565b5b818110156105485761053d600082610511565b60018101905061052a565b5050565b601f82111561058d5761055e81610423565b61056784610438565b81016020851015610576578190505b61058a61058285610438565b830182610529565b50505b505050565b600082821c905092915050565b60006105b060001984600802610592565b1980831691505092915050565b60006105c9838361059f565b9150826002028217905092915050565b6105e282610389565b67ffffffffffffffff8111156105fb576105fa610394565b5b61060582546103f2565b61061082828561054c565b600060209050601f8311600181146106435760008415610631578287015190505b61063b85826105bd565b8655506106a3565b601f19841661065186610423565b60005b8281101561067957848901518255600182019150602085019450602081019050610654565b868310156106965784890151610692601f89168261059f565b8355505b6001600288020188555050505b505050505050565b61237d806106ba6000396000f3fe608060405234801561001057600080fd5b50600436106101c45760003560e01c80634ed8fe2b116100f9578063a217fddf11610097578063d547741f11610071578063d547741f146104f7578063db006a7514610513578063dd62ed3e1461052f578063f30c0b161461055f576101c4565b8063a217fddf1461048b578063a9059cbb146104a9578063d5391393146104d9576101c4565b80637a997ab7116100d35780637a997ab7146104155780638456cb591461043357806391d148541461043d57806395d89b411461046d576101c4565b80634ed8fe2b146103ab5780635c975abb146103c757806370a08231146103e5576101c4565b8063282c51f31161016657806336568abe1161014057806336568abe1461034d5780633f4ba83a1461036957806340c10f19146103735780634c1e39101461038f576101c4565b8063282c51f3146102f55780632f2ff15d14610313578063313ce5671461032f576101c4565b8063095ea7b3116101a2578063095ea7b31461024757806318160ddd1461027757806323b872dd14610295578063248a9ca3146102c5576101c4565b806301ffc9a7146101c957806302ea4d26146101f957806306fdde0314610229575b600080fd5b6101e360048036038101906101de9190611a2c565b61057b565b6040516101f09190611a74565b60405180910390f35b610213600480360381019061020e9190611aed565b6105f5565b6040516102209190611b33565b60405180910390f35b61023161060d565b60405161023e9190611bde565b60405180910390f35b610261600480360381019061025c9190611c2c565b61069f565b60405161026e9190611a74565b60405180910390f35b61027f6106c2565b60405161028c9190611b33565b60405180910390f35b6102af60048036038101906102aa9190611c6c565b6106cc565b6040516102bc9190611a74565b60405180910390f35b6102df60048036038101906102da9190611cf5565b6106fb565b6040516102ec9190611d31565b60405180910390f35b6102fd61071b565b60405161030a9190611d31565b60405180910390f35b61032d60048036038101906103289190611d4c565b61073f565b005b610337610761565b6040516103449190611da8565b60405180910390f35b61036760048036038101906103629190611d4c565b61076a565b005b6103716107e5565b005b61038d60048036038101906103889190611c2c565b6107fd565b005b6103a960048036038101906103a49190611d4c565b61093a565b005b6103c560048036038101906103c09190611d4c565b61099b565b005b6103cf6109fc565b6040516103dc9190611a74565b60405180910390f35b6103ff60048036038101906103fa9190611aed565b610a13565b60405161040c9190611b33565b60405180910390f35b61041d610a5b565b60405161042a9190611d31565b60405180910390f35b61043b610a7f565b005b61045760048036038101906104529190611d4c565b610a97565b6040516104649190611a74565b60405180910390f35b610475610b02565b6040516104829190611bde565b60405180910390f35b610493610b94565b6040516104a09190611d31565b60405180910390f35b6104c360048036038101906104be9190611c2c565b610b9b565b6040516104d09190611a74565b60405180910390f35b6104e1610c20565b6040516104ee9190611d31565b60405180910390f35b610511600480360381019061050c9190611d4c565b610c44565b005b61052d60048036038101906105289190611dc3565b610c66565b005b61054960048036038101906105449190611df0565b610d8e565b6040516105569190611b33565b60405180910390f35b61057960048036038101906105749190611c2c565b610e15565b005b60007f7965db0b000000000000000000000000000000000000000000000000000000007bffffffffffffffffffffffffffffffffffffffffffffffffffffffff1916827bffffffffffffffffffffffffffffffffffffffffffffffffffffffff191614806105ee57506105ed82610f0e565b5b9050919050565b60076020528060005260406000206000915090505481565b60606003805461061c90611e5f565b80601f016020809104026020016040519081016040528092919081815260200182805461064890611e5f565b80156106955780601f1061066a57610100808354040283529160200191610695565b820191906000526020600020905b81548152906001019060200180831161067857829003601f168201915b5050505050905090565b6000806106aa610f78565b90506106b7818585610f80565b600191505092915050565b6000600254905090565b6000806106d7610f78565b90506106e4858285610f92565b6106ef858585611027565b60019150509392505050565b600060056000838152602001908152602001600020600101549050919050565b7f3c11d16cbaffd01df69ce1c404f6340ee057498f5f00246190ea54220576a84881565b610748826106fb565b6107518161111b565b61075b838361112f565b50505050565b60006012905090565b610772610f78565b73ffffffffffffffffffffffffffffffffffffffff168173ffffffffffffffffffffffffffffffffffffffff16146107d6576040517f6697b23200000000000000000000000000000000000000000000000000000000815260040160405180910390fd5b6107e08282611221565b505050565b6000801b6107f28161111b565b6107fa611314565b50565b7f9f2df0fed2c77648de5860a4cc508cd0818c85b8b8a1ab4ceeef8d981c8956a66108278161111b565b61082f611377565b81600760008573ffffffffffffffffffffffffffffffffffffffff1673ffffffffffffffffffffffffffffffffffffffff1681526020019081526020016000205410156108b1576040517f08c379a00000000000000000000000000000000000000000000000000000000081526004016108a890611edc565b60405180910390fd5b81600760008573ffffffffffffffffffffffffffffffffffffffff1673ffffffffffffffffffffffffffffffffffffffff16815260200190815260200160002060008282546109009190611f2b565b925050819055506000610911610761565b600a61091d9190612092565b8361092891906120dd565b905061093484826113b8565b50505050565b6000801b6109478161111b565b610951838361112f565b50828273ffffffffffffffffffffffffffffffffffffffff167fda30bc4b07b603a443b499d363be90a5c665dc23c07fdc89dfb4f5619e38a47060405160405180910390a3505050565b6000801b6109a88161111b565b6109b28383611221565b50828273ffffffffffffffffffffffffffffffffffffffff167f5146e39d0f7a6bf5eb1350ce87496dad50999093d02dadfe41b1cb3c01a6c55960405160405180910390a3505050565b6000600660009054906101000a900460ff16905090565b60008060008373ffffffffffffffffffffffffffffffffffffffff1673ffffffffffffffffffffffffffffffffffffffff168152602001908152602001600020549050919050565b7fdc72ed553f2544c34465af23b847953efeb813428162d767f9ba5f4013be676081565b6000801b610a8c8161111b565b610a9461143a565b50565b60006005600084815260200190815260200160002060000160008373ffffffffffffffffffffffffffffffffffffffff1673ffffffffffffffffffffffffffffffffffffffff16815260200190815260200160002060009054906101000a900460ff16905092915050565b606060048054610b1190611e5f565b80601f0160208091040260200160405190810160405280929190818152602001828054610b3d90611e5f565b8015610b8a5780601f10610b5f57610100808354040283529160200191610b8a565b820191906000526020600020905b815481529060010190602001808311610b6d57829003601f168201915b5050505050905090565b6000801b81565b6000610ba5611377565b610bcf7fdc72ed553f2544c34465af23b847953efeb813428162d767f9ba5f4013be676084610a97565b610c0e576040517f08c379a0000000000000000000000000000000000000000000000000000000008152600401610c059061216b565b60405180910390fd5b610c18838361149d565b905092915050565b7f9f2df0fed2c77648de5860a4cc508cd0818c85b8b8a1ab4ceeef8d981c8956a681565b610c4d826106fb565b610c568161111b565b610c608383611221565b50505050565b610c6e611377565b6000610c78610761565b600a610c849190612092565b82610c8f91906120dd565b905080610c9b33610a13565b1015610cdc576040517f08c379a0000000000000000000000000000000000000000000000000000000008152600401610cd3906121d7565b60405180910390fd5b610ce633826114c0565b81600760003373ffffffffffffffffffffffffffffffffffffffff1673ffffffffffffffffffffffffffffffffffffffff1681526020019081526020016000206000828254610d3591906121f7565b925050819055503373ffffffffffffffffffffffffffffffffffffffff167f979175fbd68c175f47c857961e1ae47f66110fc9d536d27b185cafc75f5c2df983604051610d829190611b33565b60405180910390a25050565b6000600160008473ffffffffffffffffffffffffffffffffffffffff1673ffffffffffffffffffffffffffffffffffffffff16815260200190815260200160002060008373ffffffffffffffffffffffffffffffffffffffff1673ffffffffffffffffffffffffffffffffffffffff16815260200190815260200160002054905092915050565b6000801b610e228161111b565b60008211610e65576040517f08c379a0000000000000000000000000000000000000000000000000000000008152600401610e5c9061229d565b60405180910390fd5b81600760008573ffffffffffffffffffffffffffffffffffffffff1673ffffffffffffffffffffffffffffffffffffffff1681526020019081526020016000206000828254610eb491906121f7565b925050819055508273ffffffffffffffffffffffffffffffffffffffff167fd2830aacd5c145b1503aa6f6e8cc1b2bea2c87032279cd63aa46247b54412c0b83604051610f019190611b33565b60405180910390a2505050565b60007f01ffc9a7000000000000000000000000000000000000000000000000000000007bffffffffffffffffffffffffffffffffffffffffffffffffffffffff1916827bffffffffffffffffffffffffffffffffffffffffffffffffffffffff1916149050919050565b600033905090565b610f8d8383836001611542565b505050565b6000610f9e8484610d8e565b90507fffffffffffffffffffffffffffffffffffffffffffffffffffffffffffffffff8110156110215781811015611011578281836040517ffb8f41b2000000000000000000000000000000000000000000000000000000008152600401611008939291906122cc565b60405180910390fd5b61102084848484036000611542565b5b50505050565b600073ffffffffffffffffffffffffffffffffffffffff168373ffffffffffffffffffffffffffffffffffffffff16036110995760006040517f96c6fd1e0000000000000000000000000000000000000000000000000000000081526004016110909190612303565b60405180910390fd5b600073ffffffffffffffffffffffffffffffffffffffff168273ffffffffffffffffffffffffffffffffffffffff160361110b5760006040517fec442f050000000000000000000000000000000000000000000000000000000081526004016111029190612303565b60405180910390fd5b611116838383611719565b505050565b61112c81611127610f78565b61193e565b50565b600061113b8383610a97565b6112165760016005600085815260200190815260200160002060000160008473ffffffffffffffffffffffffffffffffffffffff1673ffffffffffffffffffffffffffffffffffffffff16815260200190815260200160002060006101000a81548160ff0219169083151502179055506111b3610f78565b73ffffffffffffffffffffffffffffffffffffffff168273ffffffffffffffffffffffffffffffffffffffff16847f2f8788117e7eff1d82e926ec794901d17c78024a50270940304540a733656f0d60405160405180910390a46001905061121b565b600090505b92915050565b600061122d8383610a97565b156113095760006005600085815260200190815260200160002060000160008473ffffffffffffffffffffffffffffffffffffffff1673ffffffffffffffffffffffffffffffffffffffff16815260200190815260200160002060006101000a81548160ff0219169083151502179055506112a6610f78565b73ffffffffffffffffffffffffffffffffffffffff168273ffffffffffffffffffffffffffffffffffffffff16847ff6391f5c32d9c69d2a47ea670b442974b53935d1edc7fd64eb21e047a839171b60405160405180910390a46001905061130e565b600090505b92915050565b61131c61198f565b6000600660006101000a81548160ff0219169083151502179055507f5db9ee0a495bf2e6ff9c91a7834c1ba4fdd244a5e8aa4e537bd38aeae4b073aa611360610f78565b60405161136d9190612303565b60405180910390a1565b61137f6109fc565b156113b6576040517fd93c066500000000000000000000000000000000000000000000000000000000815260040160405180910390fd5b565b600073ffffffffffffffffffffffffffffffffffffffff168273ffffffffffffffffffffffffffffffffffffffff160361142a5760006040517fec442f050000000000000000000000000000000000000000000000000000000081526004016114219190612303565b60405180910390fd5b61143660008383611719565b5050565b611442611377565b6001600660006101000a81548160ff0219169083151502179055507f62e78cea01bee320cd4e420270b5ea74000d11b0c9f74754ebdbfc544b05a258611486610f78565b6040516114939190612303565b60405180910390a1565b6000806114a8610f78565b90506114b5818585611027565b600191505092915050565b600073ffffffffffffffffffffffffffffffffffffffff168273ffffffffffffffffffffffffffffffffffffffff16036115325760006040517f96c6fd1e0000000000000000000000000000000000000000000000000000000081526004016115299190612303565b60405180910390fd5b61153e82600083611719565b5050565b600073ffffffffffffffffffffffffffffffffffffffff168473ffffffffffffffffffffffffffffffffffffffff16036115b45760006040517fe602df050000000000000000000000000000000000000000000000000000000081526004016115ab9190612303565b60405180910390fd5b600073ffffffffffffffffffffffffffffffffffffffff168373ffffffffffffffffffffffffffffffffffffffff16036116265760006040517f94280d6200000000000000000000000000000000000000000000000000000000815260040161161d9190612303565b60405180910390fd5b81600160008673ffffffffffffffffffffffffffffffffffffffff1673ffffffffffffffffffffffffffffffffffffffff16815260200190815260200160002060008573ffffffffffffffffffffffffffffffffffffffff1673ffffffffffffffffffffffffffffffffffffffff168152602001908152602001600020819055508015611713578273ffffffffffffffffffffffffffffffffffffffff168473ffffffffffffffffffffffffffffffffffffffff167f8c5be1e5ebec7d5bd14f71427d1e84f3dd0314c0f7b2291e5b200ac8c7c3b9258460405161170a9190611b33565b60405180910390a35b50505050565b600073ffffffffffffffffffffffffffffffffffffffff168373ffffffffffffffffffffffffffffffffffffffff160361176b57806002600082825461175f91906121f7565b9250508190555061183e565b60008060008573ffffffffffffffffffffffffffffffffffffffff1673ffffffffffffffffffffffffffffffffffffffff168152602001908152602001600020549050818110156117f7578381836040517fe450d38c0000000000000000000000000000000000000000000000000000000081526004016117ee939291906122cc565b60405180910390fd5b8181036000808673ffffffffffffffffffffffffffffffffffffffff1673ffffffffffffffffffffffffffffffffffffffff16815260200190815260200160002081905550505b600073ffffffffffffffffffffffffffffffffffffffff168273ffffffffffffffffffffffffffffffffffffffff160361188757806002600082825403925050819055506118d4565b806000808473ffffffffffffffffffffffffffffffffffffffff1673ffffffffffffffffffffffffffffffffffffffff168152602001908152602001600020600082825401925050819055505b8173ffffffffffffffffffffffffffffffffffffffff168373ffffffffffffffffffffffffffffffffffffffff167fddf252ad1be2c89b69c2b068fc378daa952ba7f163c4a11628f55a4df523b3ef836040516119319190611b33565b60405180910390a3505050565b6119488282610a97565b61198b5780826040517fe2517d3f00000000000000000000000000000000000000000000000000000000815260040161198292919061231e565b60405180910390fd5b5050565b6119976109fc565b6119cd576040517f8dfc202b00000000000000000000000000000000000000000000000000000000815260040160405180910390fd5b565b600080fd5b60007fffffffff0000000000000000000000000000000000000000000000000000000082169050919050565b611a09816119d4565b8114611a1457600080fd5b50565b600081359050611a2681611a00565b92915050565b600060208284031215611a4257611a416119cf565b5b6000611a5084828501611a17565b91505092915050565b60008115159050919050565b611a6e81611a59565b82525050565b6000602082019050611a896000830184611a65565b92915050565b600073ffffffffffffffffffffffffffffffffffffffff82169050919050565b6000611aba82611a8f565b9050919050565b611aca81611aaf565b8114611ad557600080fd5b50565b600081359050611ae781611ac1565b92915050565b600060208284031215611b0357611b026119cf565b5b6000611b1184828501611ad8565b91505092915050565b6000819050919050565b611b2d81611b1a565b82525050565b6000602082019050611b486000830184611b24565b92915050565b600081519050919050565b600082825260208201905092915050565b60005b83811015611b88578082015181840152602081019050611b6d565b60008484015250505050565b6000601f19601f8301169050919050565b6000611bb082611b4e565b611bba8185611b59565b9350611bca818560208601611b6a565b611bd381611b94565b840191505092915050565b60006020820190508181036000830152611bf88184611ba5565b905092915050565b611c0981611b1a565b8114611c1457600080fd5b50565b600081359050611c2681611c00565b92915050565b60008060408385031215611c4357611c426119cf565b5b6000611c5185828601611ad8565b9250506020611c6285828601611c17565b9150509250929050565b600080600060608486031215611c8557611c846119cf565b5b6000611c9386828701611ad8565b9350506020611ca486828701611ad8565b9250506040611cb586828701611c17565b9150509250925092565b6000819050919050565b611cd281611cbf565b8114611cdd57600080fd5b50565b600081359050611cef81611cc9565b92915050565b600060208284031215611d0b57611d0a6119cf565b5b6000611d1984828501611ce0565b91505092915050565b611d2b81611cbf565b82525050565b6000602082019050611d466000830184611d22565b92915050565b60008060408385031215611d6357611d626119cf565b5b6000611d7185828601611ce0565b9250506020611d8285828601611ad8565b9150509250929050565b600060ff82169050919050565b611da281611d8c565b82525050565b6000602082019050611dbd6000830184611d99565b92915050565b600060208284031215611dd957611dd86119cf565b5b6000611de784828501611c17565b91505092915050565b60008060408385031215611e0757611e066119cf565b5b6000611e1585828601611ad8565b9250506020611e2685828601611ad8565b9150509250929050565b7f4e487b7100000000000000000000000000000000000000000000000000000000600052602260045260246000fd5b60006002820490506001821680611e7757607f821691505b602082108103611e8a57611e89611e30565b5b50919050565b7f496e73756666696369656e74206669617420686f6c64696e6773000000000000600082015250565b6000611ec6601a83611b59565b9150611ed182611e90565b602082019050919050565b60006020820190508181036000830152611ef581611eb9565b9050919050565b7f4e487b7100000000000000000000000000000000000000000000000000000000600052601160045260246000fd5b6000611f3682611b1a565b9150611f4183611b1a565b9250828203905081811115611f5957611f58611efc565b5b92915050565b60008160011c9050919050565b6000808291508390505b6001851115611fb657808604811115611f9257611f91611efc565b5b6001851615611fa15780820291505b8081029050611faf85611f5f565b9450611f76565b94509492505050565b600082611fcf576001905061208b565b81611fdd576000905061208b565b8160018114611ff35760028114611ffd5761202c565b600191505061208b565b60ff84111561200f5761200e611efc565b5b8360020a91508482111561202657612025611efc565b5b5061208b565b5060208310610133831016604e8410600b84101617156120615782820a90508381111561205c5761205b611efc565b5b61208b565b61206e8484846001611f6c565b9250905081840481111561208557612084611efc565b5b81810290505b9392505050565b600061209d82611b1a565b91506120a883611d8c565b92506120d57fffffffffffffffffffffffffffffffffffffffffffffffffffffffffffffffff8484611fbf565b905092915050565b60006120e882611b1a565b91506120f383611b1a565b925082820261210181611b1a565b9150828204841483151761211857612117611efc565b5b5092915050565b7f526563697069656e74206e6f742077686974656c697374656400000000000000600082015250565b6000612155601983611b59565b91506121608261211f565b602082019050919050565b6000602082019050818103600083015261218481612148565b9050919050565b7f496e73756666696369656e742042616c616e6365000000000000000000000000600082015250565b60006121c1601483611b59565b91506121cc8261218b565b602082019050919050565b600060208201905081810360008301526121f0816121b4565b9050919050565b600061220282611b1a565b915061220d83611b1a565b925082820190508082111561222557612224611efc565b5b92915050565b7f4465706f73697420616d6f756e742073686f756c64206265206869676865722060008201527f7468616e20300000000000000000000000000000000000000000000000000000602082015250565b6000612287602683611b59565b91506122928261222b565b604082019050919050565b600060208201905081810360008301526122b68161227a565b9050919050565b6122c681611aaf565b82525050565b60006060820190506122e160008301866122bd565b6122ee6020830185611b24565b6122fb6040830184611b24565b949350505050565b600060208201905061231860008301846122bd565b92915050565b600060408201905061233360008301856122bd565b6123406020830184611d22565b939250505056fea2646970667358221220f259c79d2c4cdf805d00ec79f19b8e2cb593de4df5f3e34509ae9bb0dc0195ac64736f6c634300081c0033",
  "linkReferences": {},
  "deployedLinkReferences": {}
}